:0100000001FE
:0100010002FC
:0100020003FA
:0100030004F8
:0100040005F6
:0100050006F4
:0100060007F2
:0100070008F0
:0100080009EE
:010009000AEC
:01000A000BEA
:01000B000CE8
:01000C000DE6
:01000D000EE4
:01000E000FE2
:01000F0000F0
:0100100001EE
:0100110002EC
:0100120003EA
:0100130004E8
:0100140005E6
:0100150006E4
:0100160007E2
:0100170008E0
:0100180009DE
:010019000ADC
:01001A000BDA
:01001B000CD8
:01001C000DD6
:01001D000ED4
:01001E000FD2
:01001F0000E0
:0100200001DE
:0100210002DC
:0100220003DA
:0100230004D8
:0100240005D6
:0100250006D4
:0100260007D2
:0100270008D0
:0100280009CE
:010029000ACC
:01002A000BCA
:01002B000CC8
:01002C000DC6
:01002D000EC4
:01002E000FC2
:01002F0000D0
:0100300001CE
:010031000AC4
:0100320003CA
:0100330004C8
:0100340005C6
:0100350006C4
:0100360007C2
:0100370008C0
:0100380009BE
:010039000ABC
:01003A000BBA
:01003B000CB8
:01003C000DB6
:01003D000EB4
:01003E000FB2
:01003F0000C0
:0100400001BE
:0100410002BC
:0100420003BA
:0100430004B8
:0100440005B6
:0100450006B4
:0100460007B2
:0100470008B0
:0100480009AE
:010049000AAC
:01004A000BAA
:01004B000CA8
:01004C000DA6
:01004D000EA4
:01004E000FA2
:01004F0000B0
:0100500001AE
:0100510002AC
:0100520003AA
:0100530004A8
:0100540005A6
:0100550006A4
:0100560007A2
:0100570008A0
:01005800099E
:010059000A9C
:01005A000B9A
:01005B000C98
:01005C000D96
:01005D000E94
:01005E000F92
:01005F0000A0
:01006000019E
:01006100029C
:01006200039A
:010063000498
:010064000596
:010065000694
:010066000792
:010067000890
:01006800098E
:010069000A8C
:01006A000B8A
:01006B000C88
:01006C000D86
:01006D000E84
:01006E000F82
:01006F000090
:01007000018E
:01007100028C
:01007200038A
:010073000488
:010074000586
:010075000684
:010076000782
:010077000880
:01007800097E
:010079000A7C
:01007A000B7A
:01007B000C78
:01007C000D76
:01007D000E74
:01007E000F72
:01007F000080
:01008000017E
:01008100027C
:01008200037A
:010083000478
:010084000576
:010085000674
:010086000772
:010087000870
:01008800096E
:010089000A6C
:01008A000B6A
:01008B000C68
:01008C000D66
:01008D000E64
:01008E000F62
:01008F000070
:01009000016E
:01009100026C
:01009200036A
:010093000468
:010094000566
:010095000664
:010096000762
:010097000860
:01009800095E
:010099000A5C
:01009A000B5A
:01009B000C58
:01009C000D56
:01009D000E54
:01009E000F52
:01009F000060
:0100A000015E
:0100A100025C
:0100A200035A
:0100A3000458
:0100A4000556
:0100A5000654
:0100A6000752
:0100A7000850
:0100A800094E
:0100A9000A4C
:0100AA000B4A
:0100AB000C48
:0100AC000D46
:0100AD000E44
:0100AE000F42
:0100AF000050
:0100B000014E
:0100B100024C
:0100B200034A
:0100B3000448
:0100B4000546
:0100B5000644
:0100B6000742
:0100B7000840
:0100B800093E
:0100B9000A3C
:0100BA000B3A
:0100BB000C38
:0100BC000D36
:0100BD000E34
:0100BE000F32
:0100BF000040
:0100C000013E
:0100C100023C
:0100C200033A
:0100C3000438
:0100C4000536
:0100C5000634
:0100C6000732
:0100C7000830
:0100C800092E
:0100C9000A2C
:0100CA000B2A
:0100CB000C28
:0100CC000D26
:0100CD000E24
:0100CE000F22
:0100CF000030
:0100D000012E
:0100D100022C
:0100D200032A
:0100D3000428
:0100D4000526
:0100D5000624
:0100D6000722
:0100D7000820
:0100D800091E
:0100D9000A1C
:0100DA000B1A
:0100DB000C18
:0100DC000D16
:0100DD000E14
:0100DE000F12
:0100DF000020
:0100E000011E
:0100E100021C
:0100E200031A
:0100E3000418
:0100E4000516
:0100E5000614
:0100E6000712
:0100E7000810
:0100E800090E
:0100E9000A0C
:0100EA000B0A
:0100EB000C08
:0100EC000D06
:0100ED000E04
:0100EE000F02
:0100EF000010
:0100F000010E
:0100F100020C
:0100F200030A
:0100F3000408
:0100F4000506
:0100F5000604
:0100F6000702
:0100F7000800
:0100F80009FE
:0100F9000AFC
:0100FA000BFA
:0100FB000CF8
:0100FC000DF6
:0100FD000EF4
:0100FE000FF2
:0100FF000000
:00000001FF
